S0110000646F746D61747269782E7372656337
S11300000C942A000C9447000C9447000C9447006D
S11300100C9447000C9447000C9447000C94470040
S11300200C9447000C9447000C9447000C94470030
S11300300C9447000C9447000C9447000C94470020
S11300400C9447000C9447000C9447000C94470010
S11300500C94470011241FBECFE5D4E0DEBFCDBF12
S113006012E0A0E6B0E0ECECF1E002C005900D92E5
S1130070A831B107D9F712E0A8E1B2E001C01D929E
S1130080A831B107E1F70E9449000C94E4000C94F4
S11300900000CF93DF93CDB7DEB767970FB6F89420
S11300A0DEBF0FBECDBF8FEF81BB87BB8FE084BBAC
S11300B0DE011196E0E6F0E088E001900D928150B7
S11300C0E1F7DE011996E8E6F0E08FE001900D9289
S11300D08150E1F7882499240F2EF8EC6F2E7724B1
S11300E0F02DAE014B5F5F4F5E010894A11CB11C63
S11300F01A2D0B2D442455244EC0E9E0F0E0EC0FFA
S1130100FD1FE80DF91D8081B30190E08295929561
S1130110907F9827807F98270F2EF7E7EF2EF0E047
S1130120FF2EF02DE80EF91E0F2EFFE7CF2EF0E084
S1130130DF2EF02DC80ED91E26C08D9188BB80817C
S11301403296809582BB87EE93E00197F1F700C069
S11301500000A417B50789F718BAF601D9018D91E3
S11301609D0185BB80813296809582BB87EE93E0AA
S11301700197F1F700C00000A417B50779F715BA85
S11301806150704029F09501F701A12FB02FD5CF10
S11301900894811C911C9FE08916910408F4ADCF4A
S11301A08FEF9EE5A5E081509040A040E1F700C0AC
S11301B000008FEF9EE5A5E081509040A040E1F75C
S10F01C000C000004201E7CFF894FFCF1C
S11301CC01020408102040800700080B040B0402F1
S11301DC13110E0D08021200007F00FF00CC00CC9E
S11301EC00CC00FF007F0000003C007E00DB00DB45
S11301FC00DB00FF00FF000000C300C300C300C30A
S113020C00E7007E003C0000007E00BD00C300C37C
S113021C00C300FF00FF000000DB00DB00DB00DBA1
S113022C00DB00FF00FF000000D800D800D800D885
S113023C00D800FF00FF001F00DF00D800DB00DB4C
S113024C00DB00FF00FF000000FF00FF0018001897
S113025C001800FF00FF00C300C300C300FF00FF31
S113026C00C300C300C300C000C000C000FF00FFF7
S113027C00C300CF00CF000000C300E7007E003CA9
S113028C001800FF00FF0003000300030003000339
S113029C000300FF00FF00FF00FF0060007000700F
S11302AC006000FF00FF00FF00FF001C003800701E
S11302BC00E000FF00FF007E00FF00C300C300C38A
S11302CC00C300FF007E0000007000F800CC00CCDE
S11302DC00CC00FF00FF007E00FF00CF00DF00DB3E
S11302EC00C300FF007E007900FB00DF00DE00DCB1
S11302FC00D800FF00FF00CE00DF00DB00DB00DBDA
S113030C00DB00FB007300C000C000C000FF00FF56
S113031C00C000C000C000FE00FF00030003000387
S113032C000300FF00FE00E000FC001E00030003BD
S113033C001E00FC00E000FE00FF000300FF00FFB5
S113034C000300FF00FE004200E7007E003C003C7E
S113035C007E00E70042004000E00070003F003FD8
S113036C007000E0004000C300E300F300FB00DF7A
S10B037C00CF00C700C300001C
S9030000FC
