:100000000C942A000C9447000C9447000C94470071
:100010000C9447000C9447000C9447000C94470044
:100020000C9447000C9447000C9447000C94470034
:100030000C9447000C9447000C9447000C94470024
:100040000C9447000C9447000C9447000C94470014
:100050000C94470011241FBECFE5D4E0DEBFCDBF16
:1000600010E0A0E6B0E0E8E2F4E002C005900D92F6
:10007000AC36B107D9F710E0ACE6B0E001C01D9294
:10008000AC36B107E1F70E947B010C9412020C948C
:10009000000084EE86BF06B607FEFDCF089584E912
:1000A00086BF089511B887E480B984E086BF0895BB
:1000B00083B984EC86BF06B607FEFDCF089582950E
:1000C000880F880F807C846886BF06B607FEFDCF48
:1000D00083B1089580ED83B984EC86BF06B607FE30
:1000E000FDCF0895EF92FF920F931F93CF93DF936D
:1000F000EC018B017A010E9449000E946A0084E0B1
:100100000E9458000E944F000E94490081ED0E9409
:10011000580081E00E945F00888381E00E945F00B8
:10012000F801808380E00E945F00F70180830E94D5
:100130004F00DF91CF911F910F91FF90EF900895A5
:10014000EF92FF920F931F93CF93DF937C018B016C
:10015000EA010E9449000E946A0080E00E94580063
:100160000E944F000E94490081ED0E94580081E0EA
:100170000E945F00888381E00E945F00F801808315
:1001800080E00E945F00F70180830E944F00DF91B2
:10019000CF911F910F91FF90EF9008951F93CF93F0
:1001A000DF93182FD62FC42F0E9449000E946A00A7
:1001B00084E00E945800812F0E9458008D2F0E94D9
:1001C00058008C2F0E9458000E944F00DF91CF9161
:1001D0001F9108951F93CF93DF93C82FD62F142F0D
:1001E0000E9449000E946A0080E00E945800812F0E
:1001F0000E9458008D2F0E9458008C2F0E9458009A
:100200000E944F00DF91CF911F91089588E080B93F
:100210000E9449000E946A0087E00E94580080E026
:100220000E9458000E944F000895C098C198C29A39
:100230008FEC97E00197F1F700C00000C2988FE9BA
:100240009FE00197F1F700C000000895CF93C82FF9
:10025000807F88BB0E9415018C2F90E0829592953B
:10026000907F9827807F982788BB0E941501CF91A7
:100270000895C09AC198C29A8FEC97E00197F1F760
:1002800000C00000C2988FE99FE00197F1F700C01D
:1002900000000895CF93C82F807F88BB0E9439014A
:1002A0008C2F90E082959295907F9827807F982759
:1002B00088BB0E943901CF910895CF93DF93EC0161
:1002C0008881882331F021960E944A0189918823F0
:1002D000D9F7DF91CF9108950E944A0108958FEFD9
:1002E00087BB82E00E94260188E20E9426018EE000
:1002F0000E9426010895CF93DF9300D000D000D054
:10030000CDB7DEB78FEF8ABB87BB0E946F0188E055
:1003100080B90E94060180E265E245E10E94EA00A0
:1003200081E167E047E10E94CE008CE00E94260157
:1003300080E690E00E945D0180EC0E94260186E646
:1003400090E00E945D0180E80E94260186E80E94FC
:100350002601CE010196BE016E5F7F4FAE014D5F5B
:100360005F4F0E94A000CE010496BE016B5F7F4FDD
:10037000AE014A5F5F4F0E947200898182958F7043
:10038000805D0E946C0189818F70805D0E946C018C
:100390008AE30E946C018A8182958F70805D0E9441
:1003A0006C018A818F70805D0E946C018AE30E94DB
:1003B0006C018B8182958F70805D0E946C018B81B6
:1003C0008F70805D0E946C0186EC0E9426018C81FA
:1003D00082958F70805D0E946C018C818F70805D32
:1003E0000E946C018FE20E946C018D8182958F705A
:1003F000805D0E946C018D818F70805D0E946C0118
:100400008FE20E946C018E8182958F70805D0E94C8
:100410006C018E818F70805D0E946C0180E80E946B
:08042000260194CFF894FFCFF0
:0C04280054494D453A00444154453A0007
:00000001FF
