:100000000C942A000C9447000C9447000C94470071
:100010000C9447000C9447000C9447000C94470044
:100020000C9447000C9447000C9447000C94470034
:100030000C9447000C9447000C9447000C94470024
:100040000C9447000C9447000C9447000C94470014
:100050000C94470011241FBECFE5D4E0DEBFCDBF16
:1000600010E0A0E6B0E0E6EBF1E002C005900D92F2
:10007000A036B107D9F710E0A0E6B0E001C01D92AC
:10008000A036B107E1F70E9449000C94D9000C9406
:10009000000011BA8FE387BB8FEF82BB80E090E056
:1000A00041E050E00F2EF7E0FF2EF02DDFE1CFE032
:1000B000BFE360E070E0A1E00F2EF3E0EF2EF02D43
:1000C000E8B39A01082E02C0220F331F0A94E2F708
:1000D0002E2B28BBEFE1FEE43197F1F700C00000C2
:1000E00080995CC08230910559F1833091053CF4D0
:1000F000009781F08130910509F050C016C084301E
:100100009105A1F18430910534F18530910509F014
:1001100045C037C0A8BB0FEF19E628E101501040D9
:100120002040E1F700C0000041C0E8BA0FEF19E637
:1001300028E1015010402040E1F700C0000036C027
:10014000F8BA0FEF19E628E1015010402040E1F71E
:1001500000C000002BC0C8BB0FEF19E628E101501A
:1001600010402040E1F700C0000020C0D8BB0FEFD6
:1001700019E628E1015010402040E1F700C00000DE
:1001800015C0B8BB0FEF19E628E101501040204020
:10019000E1F700C0000018BACB0192CF18BA01965F
:1001A000863091050CF48CCFCB018ACF18BA01961A
:0601B00087CFF894FFCF99
:00000001FF
