:100000000C942A000C9447000C9447000C94470071
:100010000C9447000C9447000C9447000C94470044
:100020000C9447000C9447000C9447000C94470034
:100030000C9447000C9447000C9447000C94470024
:100040000C9447000C9447000C9447000C94470014
:100050000C94470011241FBECFE5D4E0DEBFCDBF16
:1000600011E0A0E6B0E0E2EDF1E002C005900D92F3
:10007000A034B107D9F711E0A0E4B1E001C01D92AE
:10008000A034B107E1F70E94D8000C94E7000C946B
:100090000000FC018081882369F031968FB9779B3D
:1000A000FECF8FE493EC0197F1F700C0000081913F
:1000B0008823A1F70895DC988BB3806E8BBBC89919
:1000C00005C080E690E00E94490014C0C99905C0AF
:1000D0008EE690E00E9449000DC0CA9905C08CE7E9
:1000E00090E00E94490006C0CB9904C08AE890E0E5
:1000F0000E944900DD988BB3806D8BBBC89905C009
:1001000088E990E00E94490014C0C99905C086EAB8
:1001100090E00E9449000DC0CA9905C084EB90E0B0
:100120000E94490006C0CB9904C082EC90E00E9476
:100130004900DE988BB3806B8BBBC89905C080EDFE
:1001400090E00E94490014C0C99905C08EED90E06E
:100150000E9449000DC0CA9905C08CEE90E00E9433
:10016000490006C0CB9904C08AEF90E00E94490084
:10017000DF988BB380678BBBC89905C088E091E09E
:100180000E9449000895C99905C086E191E00E9446
:1001900049000895CA9905C084E291E00E9449008F
:1001A0000895CB9904C082E391E00E94490008952C
:1001B00080EF8ABB8FE08BBBBC9ABD9ABE98BF9A7A
:1001C0008DB181658DB9709A0E945B00FDCFF89466
:0201D000FFCF5F
:1001D2006B657920372070726573736564006B6597
:1001E2007920342070726573736564006B657920C1
:1001F200312070726573736564006B6579204F20DE
:1002020070726573736564006B6579203820707253
:100212006573736564006B65792035207072657350
:10022200736564006B657920322070726573736543
:1002320064006B65792030207072657373656400A9
:100242006B657920392070726573736564006B6524
:100252007920362070726573736564006B6579204E
:10026200332070726573736564006B6579203D207D
:1002720070726573736564006B6579202F207072EC
:100282006573736564006B6579207820707265739D
:10029200736564006B6579202D20707265737365D8
:1002A20064006B6579202B2070726573736564003E
:00000001FF
