S0110000534C4156455F5350492E737265634D
S11300000C942A000C9447000C9447000C9447006D
S11300100C9447000C9447000C9447000C94470040
S11300200C9447000C9447000C9447000C94470030
S11300300C9447000C9447000C9447000C94470020
S11300400C9447000C9447000C9447000C94470010
S11300500C94470011241FBECFE5D4E0DEBFCDBF12
S113006010E0A0E6B0E0E0E8F1E002C005900D92F7
S1130070A036B107D9F710E0A0E6B0E001C01D92A8
S1130080A036B107E1F70E949D000C94BE000C94C9
S1130090000090989198929A8FEC97E00197F1F76D
S11300A000C0000092988FE99FE00197F1F700C02B
S11300B000000895CF93C82F807F82BB0E9449001F
S11300C08C2F90E082959295907F9827807F982737
S11300D082BB0E944900CF9108958FEF81BB82E0DB
S11300E00E945A0088E20E945A008EE00E945A0040
S11300F00895909A9198929A8FEC97E00197F1F76E
S113010000C0000092988FE99FE00197F1F700C0CA
S113011000000895CF93C82F807F82BB0E9479008E
S11301208C2F90E082959295907F9827807F9827D6
S113013082BB0E947900CF9108950E946D00BC9803
S1130140BD98BE9ABF988DB181648DB9709A0DE047
S113015010E0E801779BFECF8FB10E948A002197BF
S1130160C9F78FE79AE1A6E081509040A040E1F7FB
S113017000C0000081E00E945A00EBCFF894FFCF4A
S9030000FC
