:100000000C942A000C9447000C9447000C94470071
:100010000C9447000C9447000C9447000C94470044
:100020000C9447000C9447000C9447000C94470034
:100030000C9447000C9447000C9447000C94470024
:100040000C9447000C9447000C9447000C94470014
:100050000C94470011241FBECFE5D4E0DEBFCDBF16
:1000600011E0A0E6B0E0E4ECF2E002C005900D92F1
:10007000AC35B107D9F711E0ACE5B1E001C01D9294
:10008000AC35B107E1F70E9430010C9460010C948B
:100090000000539A80B5866880BD83E389B90895CE
:1000A00083B986B7846C86BF06B607FEFDCF089578
:1000B000FC018081882369F031968CB95D9BFECF6D
:1000C0008FE19EE40197F1F700C000008191882341
:1000D000A1F7089580E483B986B7846C86BF06B61D
:1000E00007FEFDCF81B1883119F0803259F405C087
:1000F00080E690E00E945800089583E990E00E9415
:10010000580008958AEC90E00E945800089586B740
:10011000846E86BF06B607FEFDCF81B1883019F028
:10012000803159F405C083EE90E00E945800089594
:100130008BE091E00E94580008958CE391E00E94CA
:100140005800089588E383B98EE083B986E083B9C7
:100150000895CF93DF93C82FD82FD07F8D2F0E9483
:1001600050008D2F84600E9450008FEC97E0019723
:10017000F1F700C000008D2F0E9450008FE99FE032
:100180000197F1F700C00000D0E0C295D295D07F72
:10019000DC27C07FDC278C2F0E9450008C2F8460CE
:1001A0000E9450008FEC97E00197F1F700C000002B
:1001B0008C2F0E9450008FE99FE00197F1F700C05B
:1001C0000000DF91CF910895CF93DF93C82FD82FF0
:1001D000D07F8D2F0E9450008D2F85600E9450008F
:1001E0008FEC97E00197F1F700C000008D2F816040
:1001F0000E9450008FE99FE00197F1F700C00000D6
:10020000D0E0C295D295D07FDC27C07FDC278C2F31
:100210000E9450008C2F85600E9450008FEC97E068
:100220000197F1F700C000008C2F81600E94500000
:100230008FE99FE00197F1F700C00000DF91CF91B7
:100240000895CF93DF93EC018881882331F02196C4
:100250000E94E40089918823D9F7DF91CF91089516
:1002600087B3876087BB84B3836084BB88E080B931
:100270000E9487000E946A0088E20E94A9008EE026
:100280000E94A90086E00E94A900CCE4D1E0CE0142
:100290000E9421018FEF99E6A8E181509040A04093
:1002A000E1F700C0000081E00E94A9008FEF90E715
:1002B000A2E081509040A040E1F700C00000E7CFED
:0402C000F894FFCFE0
:1002C400534C412B5720686173206265656E20741E
:1002D40072616E736D69747465643B2041434B2095
:1002E400686173206265656E207265636569766511
:1002F400640D00534C412B5720686173206265657F
:100304006E207472616E736D69747465643B204E03
:100314004F542041434B20686173206265656E2011
:1003240072656365697665640D004572726F72204B
:10033400696E206164647273732077726974696E84
:10034400670D004120535441525420636F6E646919
:1003540074696F6E20686173206265656E207472C3
:10036400616E736D69747465640D0041207265700B
:10037400656174656420535441525420636F6E6404
:100384006974696F6E20686173206265656E20749C
:1003940072616E736D69747465640D004572726F79
:1003A4007220696E2053544152540D0053485542F3
:0C03B40048414D204B41555348494B0037
:00000001FF
