:100000000C942A000C9447000C9447000C94470071
:100010000C9447000C9447000C9447000C94470044
:100020000C9447000C9447000C9447000C94470034
:100030000C9447000C9447000C9447000C94470024
:100040000C9447000C9447000C9447000C94470014
:100050000C94470011241FBECFE5D4E0DEBFCDBF16
:1000600010E0A0E6B0E0E8EEF9E002C005900D92E5
:10007000A637B107D9F710E0A6E7B0E001C01D929E
:10008000A637B107E1F70E940F010C94F2040C941B
:100090000000DC988BB3806E8BBBC89B2DC0C99BC6
:1000A0002EC0CA9B2FC0CB9B30C0DD988BB3806D18
:1000B0008BBBC89B2DC0C99B2EC0CA9B2FC0CB9B9E
:1000C00030C0DE988BB3806B8BBBC89B2DC0C99BA7
:1000D0002EC0CA9B2FC0CB9B30C0DF988BB38067EC
:1000E0008BBBC89B2DC0C99B2EC0CA9B2FC0CB9970
:1000F00030C087E090E0089587E090E0089584E0C4
:1001000090E0089581E090E0089580E090E0089507
:1001100088E090E0089585E090E0089582E090E026
:10012000089580E090E0089589E090E0089586E0E9
:1001300090E0089583E090E0089587E090E00895CE
:1001400087E090E0089587E090E0089587E090E0F0
:10015000089583E690E0089590989198929A8FEC94
:1001600097E00197F1F700C0000092988FE99FE0B7
:100170000197F1F700C000000895CF93C82F807F4A
:1001800082BB0E94AC008C2F90E082959295907F6C
:100190009827807F982782BB0E94AC00CF9108955A
:1001A0008FEF81BB82E00E94BD0088E20E94BD000B
:1001B0008EE00E94BD000895909A9198929A8FECDB
:1001C00097E00197F1F700C0000092988FE99FE057
:1001D0000197F1F700C000000895CF93C82F807FEA
:1001E00082BB0E94DC008C2F90E082959295907FDC
:1001F0009827807F982782BB0E94DC00CF910895CA
:10020000CF93DF93EC018881882331F021960E94FF
:10021000ED0089918823D9F7DF91CF910895AF92AE
:10022000BF92CF92DF92EF92FF920F931F93CF93E3
:10023000DF9300D000D0CDB7DEB70E94D0008FEFA3
:1002400081BBBF98BD9ABC98BE9880EF8ABB8FE0F7
:100250008BBB8DB18D668DB981E08EB901E010E068
:10026000779BFECF8FB10E94ED000D30110564F039
:100270008FEF90E7A2E081509040A040E1F700C0EE
:10028000000081E00E94BD000F5F1F4F0E3011057E
:1002900039F70AE010E0EE24FF24CC24DD24689432
:1002A000C2F8CC0EDD1E0F2EF0E6AF2EF0E0BF2E12
:1002B000F02D779BFECF8FB100D000D000D0EDB7EE
:1002C000FEB73196ADB7BEB71296DC92CE921197BB
:1002D000B382A282848315820E941B028DB79EB7CF
:1002E00006960FB6F8949EBF0FBE8DBFC6010E9442
:1002F000000195E1E916F10454F48FE798E3A1E0D9
:1003000081509040A040E1F700C0000033C0970149
:10031000C70146978331910550F48FEF99EFA0E024
:1003200081509040A040E1F700C0000023C0C70109
:100330008A978331910538F4AFE5BAEE1197F1F75A
:1003400000C0000017C0C701CE978331910538F473
:100350008FE493EC0197F1F700C000000BC0225529
:1003600030402331310530F4AFE3BCE91197F1F7A8
:1003700000C0000081E00E94BD000E9449009C0175
:1003800083369105D1F38FB190E08217930721F462
:100390008AE090E0E80EF91E0150104011F0779AC3
:1003A00088CF00D000D000D0EDB7FEB731968E01D7
:1003B0000F5F1F4FADB7BEB712961C930E931197E8
:1003C00080E690E093838283F582E4820E941B02A0
:1003D0008DB79EB706960FB6F8949EBF0FBE8DBF21
:1003E00083E690E00E94000187E80E94BD00C801FA
:1003F0000E9400018FEF99E6A8E181509040A04053
:10040000E1F700C0000081E00E94BD008AE690E0B4
:100410000E94000180E090E00F900F900F900F90ED
:10042000DF91CF911F910F91FF90EF90DF90CF90D0
:10043000BF90AF900895AEE0B0E0E1E2F2E00C943E
:10044000C9040D891E8986E08C831A8309838FEF86
:100450009FE79E838D83AE01475E5F4FCE0101967D
:100460006F89788D0E943D02EF81F885E00FF11FC2
:1004700010822E96E4E00C94E504ADE0B0E0E3E4F5
:10048000F2E00C94BB043C017D876C875A01FC01AF
:1004900017821682838181FFC8C12E010894411CF6
:1004A000511CF3019381EC85FD8593FD859193FFAC
:1004B0008191FD87EC87882309F4B3C1853241F42B
:1004C00093FD859193FF8191FD87EC87853229F417
:1004D00090E0B3010E943104E4CFFF24EE2410E049
:1004E0001032B0F48B3269F08C3228F4803251F043
:1004F000833271F40BC08D3239F0803349F41160CE
:100500002CC01260146029C0186027C0106125C07B
:1005100017FD2EC0282F20532A3098F416FF08C04C
:100520008F2D880FF82EFF0CFF0CF80EF20E15C061
:100530008E2D880FE82EEE0CEE0CE80EE20E106207
:100540000CC08E3221F416FD6CC1106406C08C36CE
:1005500011F4106802C0883659F4EC85FD8593FDCE
:10056000859193FF8191FD87EC87882309F0B8CFAF
:10057000982F9554933018F09052933038F424E02B
:1005800030E0A20EB31E3FE339830FC0833631F053
:10059000833781F0833509F05AC022C0F50180818C
:1005A000898322E030E0A20EB31E21E0C22ED12CBE
:1005B000420114C092E0292E312C2A0C3B1CF5017B
:1005C0008080918016FF03C06F2D70E002C06FEF36
:1005D0007FEFC4010E9426046C0151011F7715C0F2
:1005E00082E0282E312C2A0C3B1CF5018080918062
:1005F00016FF03C06F2D70E002C06FEF7FEFC401E4
:100600000E941B046C011068510113FD1CC006C040
:1006100080E290E0B3010E943104EA948E2D90E0D4
:10062000C816D906A8F30FC0F40117FD859117FF6E
:1006300081914F0190E0B3010E943104E110EA94EE
:100640000894C108D108C114D10471F7E7C08436F9
:1006500011F0893651F5F50117FF07C080819181AE
:10066000A281B38124E030E008C080819181AA2773
:1006700097FDA095BA2F22E030E0A20EB31E012F05
:100680000F76B7FF08C0B095A095909581959F4FC4
:10069000AF4FBF4F0068BC01CD01A2012AE030E09E
:1006A0000E945D04D82ED4183FC0853721F41F7EE8
:1006B0002AE030E020C0197F8F36A9F0803720F47F
:1006C000883509F0AEC00BC0803721F0883709F0BB
:1006D000A8C001C0106114FF09C0146007C014FF56
:1006E00008C0166006C028E030E005C020E130E018
:1006F00002C020E132E0F50117FF07C0608171817F
:100700008281938144E050E006C06081718180E085
:1007100090E042E050E0A40EB51EA2010E945D04EC
:10072000D82ED418012F0F7706FF09C00E7FDF14D3
:1007300030F404FF06C002FD04C00F7E02C01D2D70
:1007400001C01F2D802F90E004FF0CC0FE01ED0DB5
:10075000F11D2081203311F4097E09C002FF06C07B
:100760001E5F05C086789070009709F01F5F802E8D
:10077000992403FD12C000FF0DC0FD2C1E1550F47E
:10078000FE0CF11A1E2D06C080E290E0B3010E941B
:1007900031041F5F1E15C0F304C01E1510F4E11ACA
:1007A00001C0EE2484FE0FC080E390E0B3010E94FC
:1007B000310482FE1FC081FE03C088E590E010C0B6
:1007C00088E790E00DC0C40186789070009791F0A2
:1007D00081FC02C080E201C08BE207FD8DE290E067
:1007E000B3010E94310406C080E390E0B3010E948F
:1007F0003104FA94DF14C0F3DA94F201ED0DF11D27
:10080000808190E0B3010E943104DD20A9F706C089
:1008100080E290E0B3010E943104EA94EE20C1F737
:1008200040CEF3018681978102C08FEF9FEF2D9616
:10083000E2E10C94D704FC01059061507040011076
:10084000D8F7809590958E0F9F1F0895FC016150F9
:10085000704001900110D8F7809590958E0F9F1FE2
:1008600008950F931F93CF93DF938C01EB018B813E
:1008700081FF1BC082FF0DC02E813F818C819D8135
:100880002817390764F4E881F9810193F983E88333
:1008900006C0E885F985802F0995009731F48E818F
:1008A0009F8101969F838E8302C00FEF1FEFC801C7
:1008B000DF91CF911F910F910895FA01AA27283057
:1008C00051F1203181F1E8946F936E7F6E5F7F4F1D
:1008D0008F4F9F4FAF4FB1E03ED0B4E03CD0670F99
:1008E000781F891F9A1FA11D680F791F8A1F911DEC
:1008F000A11D6A0F711D811D911DA11D20D009F43C
:1009000068943F912AE0269F11243019305D31937D
:10091000DEF6CF010895462F4770405D4193B3E066
:100920000FD0C9F7F6CF462F4F70405D4A3318F00D
:10093000495D31FD4052419302D0A9F7EACFB4E0BE
:10094000A6959795879577956795BA95C9F7009776
:100950006105710508959B01AC010A2E0694579517
:10096000479537952795BA95C9F7620F731F841F6E
:10097000951FA01D08952F923F924F925F926F9204
:100980007F928F929F92AF92BF92CF92DF92EF921F
:10099000FF920F931F93CF93DF93CDB7DEB7CA1BA0
:1009A000DB0B0FB6F894DEBF0FBECDBF09942A88CB
:1009B000398848885F846E847D848C849B84AA8473
:1009C000B984C884DF80EE80FD800C811B81AA8100
:1009D000B981CE0FD11D0FB6F894DEBF0FBECDBFCB
:0809E000ED010895F894FFCF2A
:1009E80025640053434F52453A0057454C4C20501C
:0609F8004C41594544008A
:00000001FF
