S00E00006D656D6F72792E737265637D
S11300000C942A000C9447000C9447000C9447006D
S11300100C9447000C9447000C9447000C94470040
S11300200C9447000C9447000C9447000C94470030
S11300300C9447000C9447000C9447000C94470020
S11300400C9447000C9447000C9447000C94470010
S11300500C94470011241FBECFE5D4E0DEBFCDBF12
S113006010E0A0E6B0E0E8E6F4E002C005900D92EE
S1130070A237B107D9F710E0A2E7B0E001C01D92A2
S1130080A237B107E1F70E94AC000C9432020C9441
S11300900000C098C198C29A8FEC97E00197F1F7DD
S11300A000C00000C2988FE99FE00197F1F700C0FB
S11300B000000895CF93C82F807F88BB0E94490019
S11300C08C2F90E082959295907F9827807F982737
S11300D088BB0E944900CF9108958FEF87BB82E0CF
S11300E00E945A0088E20E945A008EE00E945A0040
S11300F00895C09AC198C29A8FEC97E00197F1F7DE
S113010000C00000C2988FE99FE00197F1F700C09A
S113011000000895CF93C82F807F88BB0E94790088
S11301208C2F90E082959295907F9827807F9827D6
S113013088BB0E947900CF910895CF93DF93EC019F
S11301408881882331F021960E948A00899188232E
S1130150D9F7DF91CF9108958FE084BB15BA8FEF63
S113016081BB82BB0E946D0080E690E00E949D00EE
S11301702FEF30E742E0215030404040E1F700C02B
S1130180000081E00E945A0003E010E0C1E0D0E0EA
S11301900E94C60125B3B8010E944A010196AE012E
S11301A002C0440F551F8A95E2F7CA01242B25BBD0
S11301B02FEF34E34CE0215030404040E1F700C0E1
S11301C0000095B38095892385BB0E94C60125B3A1
S11301D0B8010E944A010196AE0102C0440F551FA6
S11301E08A95E2F7CA01242B25BB2FEF34E34CE0B8
S11301F0215030404040E1F700C0000095B38095A5
S1130200892385BB0E94C60125B3B8010E944A0117
S11302100196AE0102C0440F551F8A95E2F7CA0148
S1130220242B25BB2FEF34E34CE0215030404040D9
S1130230E1F700C0000095B38095892385BB0E9437
S1130240C60125B3B8010E944A010196AE0102C05D
S1130250440F551F8A95E2F7CA01242B25BB2FEFC3
S113026034E34CE0215030404040E1F700C000004E
S113027095B38095892385BB85B38F6085BB8FEF4C
S113028099E6A8E181509040A040E1F700C0000049
S113029015BA7ECF97FB092E07260AD077FD04D026
S11302A00CD006D000201AF4709561957F4F089504
S11302B0F6F7909581959F4F0895AA1BBB1B51E1BA
S11302C007C0AA1FBB1FA617B70710F0A61BB70BC2
S11302D0881F991F5A95A9F780959095BC01CD0167
S11302E008958F929F92AF92BF92CF92DF92EF9236
S11302F0FF92CF93DF93EC0188819981AA81BB811E
S11303000097A105B10521F484E299EDABE5B7E0CE
S1130310BC01CD012DE133EF41E050E00E94F50135
S113032049015A0127EA31E440E050E00E94D60135
S11303306B017C01C501B4012CEE34EF4FEF5FEF8C
S11303400E94D601DC01CB01C80ED91EEA1EFB1E99
S1130350F7FE08C08FEF9FEFAFEFBFE7C80ED91EBF
S1130360EA1EFB1EC882D982EA82FB82C6019F77FD
S1130370DF91CF91FF90EF90DF90CF90BF90AF903F
S11303809F908F9008950E94710108958DE690E0EA
S11303900E9471010895A0E0B0E080936D009093F5
S11303A06E00A0936F00B09370000895629FD00117
S11303B0739FF001829FE00DF11D649FE00DF11D1C
S11303C0929FF00D839FF00D749FF00D659FF00DCB
S11303D09927729FB00DE11DF91F639FB00DE11DB8
S11303E0F91FBD01CF011124089597FB092E05269D
S11303F00ED057FD04D014D00AD0001C38F4509508
S11304004095309521953F4F4F4F5F4F0895F6F734
S113041090958095709561957F4F8F4F9F4F08956C
S1130420A1E21A2EAA1BBB1BFD010DC0AA1FBB1FF4
S1130430EE1FFF1FA217B307E407F50720F0A21B66
S1130440B30BE40BF50B661F771F881F991F1A94D3
S113045069F760957095809590959B01AC01BD01FD
S10B0460CF010895F894FFCFC9
S113046868696969207368756268616D00010000D4
S105047800007E
S9030000FC
