:100000000C942A000C9447000C9447000C94470071
:100010000C9447000C9447000C9447000C94470044
:100020000C9447000C9447000C9447000C94470034
:100030000C9447000C9447000C9447000C94470024
:100040000C9447000C9447000C9447000C94470014
:100050000C94470011241FBECFE5D4E0DEBFCDBF16
:1000600012E0A0E6B0E0E6EEF1E002C005900D92ED
:10007000A430B107D9F712E0A4E0B2E001C01D92AC
:10008000A430B107E1F70E94C2000C94F1000C9477
:100090000000539A80B5866880BD83E389B90895CE
:1000A00084E986BF089511B887E480B984E086BFEB
:1000B0000895FC018081882369F031968CB95D9B9D
:1000C000FECF8FE19EE40197F1F700C0000081911F
:1000D0008823A1F7089580ED83B984EC86BF06B626
:1000E00007FEFDCF81B1883119F0803259F405C087
:1000F00080E690E00E945900089583E990E00E9414
:10010000590008958AEC90E00E945900089583B93F
:1001100084EC86BF06B607FEFDCF81B1803349F07F
:10012000883361F0883279F483EE90E00E945900C0
:1001300008958AE191E00E945900089585E591E0D3
:100140000E94590008958FE791E00E945900089598
:1001500084EE86BF06B607FEFDCF81B1883019F068
:10016000803159F405C08BE991E00E94590008954F
:1001700083EC91E00E945900089584EF91E00E9481
:10018000590008950E94490084B3836084BB88E0CD
:1001900080B90E94A8000E946B0087E00E9487003F
:1001A00080E00E9487000E9450008FEF99E6A8E14E
:1001B00081509040A040E1F700C000000E94A800DC
:1001C0000E946B0080E00E94870085E50E94870006
:1001D00088E50E94870089E10E9487000E94500004
:0601E000FFCFF894FFCFF1
:1001E600534C412B5720686173206265656E2074FD
:1001F60072616E736D69747465643B2041434B2074
:10020600686173206265656E2072656365697665EF
:10021600640D00534C412B5720686173206265655D
:100226006E207472616E736D69747465643B204EE2
:100236004F542041434B20686173206265656E20F0
:1002460072656365697665640D004572726F72202A
:10025600696E206164647273732077726974696E63
:10026600670D00446174612062797465206861736A
:10027600206265656E207472616E736D6974746553
:10028600643B2041434B20686173206265656E20A4
:1002960072656365697665640D0044617461206208
:1002A60079746520686173206265656E2074726179
:1002B6006E736D69747465643B204E4F54204143E0
:1002C6004B20686173206265656E2072656365699F
:1002D6007665640D00204172626974726174696F9B
:1002E6006E206C6F737420696E20534C412B57201F
:1002F6006F7220646174612062797465730D0045C4
:1003060072726F7220696E2064617461205472612A
:100316006E736D697373696F6E0D0041205354419E
:10032600525420636F6E646974696F6E20686173DE
:10033600206265656E207472616E736D6974746592
:10034600640D0041207265706561746564205354C4
:1003560041525420636F6E646974696F6E206861E0
:1003660073206265656E207472616E736D69747454
:1003760065640D004572726F7220696E2053544198
:0403860052540D00C0
:00000001FF
