S00E00006D61737465722E737265638A
S11300000C942A000C9447000C9447000C9447006D
S11300100C9447000C9447000C9447000C94470040
S11300200C9447000C9447000C9447000C94470030
S11300300C9447000C9447000C9447000C94470020
S11300400C9447000C9447000C9447000C94470010
S11300500C94470011241FBECFE5D4E0DEBFCDBF12
S113006010E0A0E6B0E0E8EBF0E002C005900D92ED
S1130070A036B107D9F710E0A0E6B0E001C01D92A8
S1130080A036B107E1F70E9449000C945A000C9481
S1130090000080EB87BB88E088BB8DB180658DB99B
S11300A0769A92E48CE49FB96F9BFECF8FB96F9BD5
S10B00B0FECFF9CFF894FFCF55
S9030000FC
