S01400004D41535445525F5350495F322E7372656368
S11300000C942A000C9447000C9447000C9447006D
S11300100C9447000C9447000C9447000C94470040
S11300200C9447000C9447000C9447000C94470030
S11300300C9447000C9447000C9447000C94470020
S11300400C9447000C9447000C9447000C94470010
S11300500C94470011241FBECFE5D4E0DEBFCDBF12
S113006010E0A0E6B0E0ECE3F2E002C005900D92EF
S1130070AE36B107D9F710E0AEE6B0E001C01D928C
S1130080AE36B107E1F70E94E2000C941C010C9417
S113009000008FB9779BFECF8FE694E90197F1F7C3
S11300A000C000000895FC018081882369F0319626
S11300B08FB9779BFECF8FE694E90197F1F700C0E3
S11300C0000081918823A1F70895DC988BB3806E9A
S11300D08BBBC89905C087E090E00E94490014C01A
S11300E0C99905C084E090E00E9449000DC0CA99F6
S11300F005C081E090E00E94490006C0CB9904C08D
S113010080E090E00E944900DD988BB3806D8BBB4A
S1130110C89905C088E090E00E94490014C0C999BC
S113012005C085E090E00E9449000DC0CA9905C051
S113013082E090E00E94490006C0CB9904C080E0B0
S113014090E00E944900DE988BB3806B8BBBC8990A
S113015005C089E090E00E94490014C0C99905C017
S113016086E090E00E9449000DC0CA9905C083E072
S113017090E00E94490006C0CB9904C087E090E05B
S11301800E944900DF988BB380678BBBC89905C078
S113019087E090E00E9449000895C99905C087E06E
S11301A090E00E9449000895CA9905C087E090E054
S11301B00E9449000895CB9904C087E090E00E9412
S11301C0490008958898899887B3836087BB80EF36
S11301D08ABB8FE08BBB87B3806B87BB8DB18D6788
S11301E08DB981E08EB9C498C098C198BE98C09862
S11301F0C19A8FEF90E7A2E081509040A040E1F7D0
S113020000C00000C0E6D0E0CE010E945300C198B7
S1130210C09ACE010E945300C09AC19A809905C029
S1130220C098C19A0E946500F9CF809BF7CFC1980E
S10F0230C09A0E946500F2CFF894FFCF42
S111023C47414D4520424547494E532020007E
S9030000FC
